{
    "contractName": "ChainList",
    "abi": [
        {
            "constant": true,
            "inputs": [],
            "name": "getArticle",
            "outputs": [
                {
                    "name": "_seller",
                    "type": "address"
                },
                {
                    "name": "_name",
                    "type": "string"
                },
                {
                    "name": "_description",
                    "type": "string"
                },
                {
                    "name": "_price",
                    "type": "uint256"
                }
            ],
            "payable": false,
            "stateMutability": "view",
            "type": "function"
        },
        {
            "constant": false,
            "inputs": [
                {
                    "name": "_name",
                    "type": "string"
                },
                {
                    "name": "_description",
                    "type": "string"
                },
                {
                    "name": "_price",
                    "type": "uint256"
                }
            ],
            "name": "sellArticle",
            "outputs": [],
            "payable": false,
            "stateMutability": "nonpayable",
            "type": "function"
        }
    ],
    "bytecode": "6060604052341561000f57600080fd5b6104c08061001e6000396000f30060606040526004361061004b5763ffffffff7c0100000000000000000000000000000000000000000000000000000000600035041663c37218a68114610050578063d260951514610169575b600080fd5b341561005b57600080fd5b610063610200565b60405173ffffffffffffffffffffffffffffffffffffffff8516815260608101829052608060208201818152906040830190830186818151815260200191508051906020019080838360005b838110156100c75780820151838201526020016100af565b50505050905090810190601f1680156100f45780820380516001836020036101000a031916815260200191505b50838103825285818151815260200191508051906020019080838360005b8381101561012a578082015183820152602001610112565b50505050905090810190601f1680156101575780820380516001836020036101000a031916815260200191505b50965050505050505060405180910390f35b341561017457600080fd5b6101fe60046024813581810190830135806020601f8201819004810201604051908101604052818152929190602084018383808284378201915050505050509190803590602001908201803590602001908080601f016020809104026020016040519081016040528181529291906020840183838082843750949650509335935061038392505050565b005b600061020a6103e7565b6102126103e7565b60008060009054906101000a900473ffffffffffffffffffffffffffffffffffffffff1660016002600354828054600181600116156101000203166002900480601f0160208091040260200160405190810160405280929190818152602001828054600181600116156101000203166002900480156102d25780601f106102a7576101008083540402835291602001916102d2565b820191906000526020600020905b8154815290600101906020018083116102b557829003601f168201915b50505050509250818054600181600116156101000203166002900480601f01602080910402602001604051908101604052809291908181526020018280546001816001161561010002031660029004801561036e5780601f106103435761010080835404028352916020019161036e565b820191906000526020600020905b81548152906001019060200180831161035157829003601f168201915b50505050509150935093509350935090919293565b6000805473ffffffffffffffffffffffffffffffffffffffff19163373ffffffffffffffffffffffffffffffffffffffff1617905560018380516103cb9291602001906103f9565b5060028280516103df9291602001906103f9565b506003555050565b60206040519081016040526000815290565b828054600181600116156101000203166002900490600052602060002090601f016020900481019282601f1061043a57805160ff1916838001178555610467565b82800160010185558215610467579182015b8281111561046757825182559160200191906001019061044c565b50610473929150610477565b5090565b61049191905b80821115610473576000815560010161047d565b905600a165627a7a7230582013bfe156d4a27d43f44eb6ab9fb3df5757cb25e4bafacdb3076cbc6b34f7639c0029",
    "sourcePath": "c:/_MyFolder/_Learning/EthereumSolidity/ChainSkills/Training/chainlist/contracts/ChainList.sol",
    "compiler": {
        "name": "solc",
        "version": "0.4.20+commit.3155dd80"
    },
    "functionHashes": {
        "getArticle()": "c37218a6",
        "sellArticle(string,string,uint256)": "d2609515"
    },
    "gasEstimates": {
        "creation": {
            "codeDepositCost": "243200",
            "executionCost": "276",
            "totalCost": "243476"
        },
        "external": {
            "getArticle()": "infinite",
            "sellArticle(string,string,uint256)": "infinite"
        }
    }
}